S01000005465636C61646F4D2E737265630B
S11300000C9444000C944E000C944E000C944E003E
S11300100C944E000C944E000C944E000C944E0024
S11300200C944E000C944E000C944E000C944E0014
S11300300C944E000C944E000C944E000C944E0004
S11300400C944E000C944E000C944E000C944E00F4
S11300500C944E000C944E000C944E000C944E00E4
S11300600C944E000C944E005A00700086009C00C4
S1130070B200C800DE00F4000A01200136014C0180
S1130080620178018E01A40111241FBECFEFD8E0D4
S1130090DEBFCDBF0E94CA010C9473020C94000011
S11300A090E08031910508F064C1FC01EC5CFF4FE5
S11300B00C946D0285B18F7B85B985B18F7D85B92F
S11300C085B18F7E85B985B1877F85B985B18B7FF1
S11300D085B985B18D7F85B985B1816085B908956C
S11300E085B1806485B985B18F7D85B985B18F7EF1
S11300F085B985B1886085B985B1846085B985B1D4
S1130100826085B985B1816085B9089585B18F7B99
S113011085B985B18F7D85B985B1806185B985B192
S1130120877F85B985B18B7F85B985B1826085B9B3
S113013085B18E7F85B9089585B18F7B85B985B1E9
S11301408F7D85B985B18F7E85B985B1877F85B966
S113015085B1846085B985B1826085B985B18E7FAA
S113016085B9089585B1806485B985B18F7D85B9D8
S113017085B18F7E85B985B1886085B985B1846084
S113018085B985B18D7F85B985B18E7F85B908958F
S113019085B18F7B85B985B1806285B985B18F7E44
S11301A085B985B1877F85B985B1846085B985B105
S11301B08D7F85B985B18E7F85B9089585B18F7B93
S11301C085B985B1806285B985B18F7E85B985B1E0
S11301D0877F85B985B18B7F85B985B18D7F85B9D9
S11301E085B18E7F85B9089585B18F7B85B985B139
S11301F08F7D85B985B18F7E85B985B1886085B9D4
S113020085B1846085B985B1826085B985B1816025
S113021085B9089585B18F7B85B985B18F7D85B901
S113022085B18F7E85B985B1877F85B985B18B7F8F
S113023085B985B18D7F85B985B18E7F85B90895DE
S113024085B18F7B85B985B18F7D85B985B18F7E69
S113025085B985B1877F85B985B1846085B985B154
S11302608D7F85B985B18E7F85B9089585B18F7BE2
S113027085B985B18F7D85B985B18F7E85B985B105
S1130280886085B985B18B7F85B985B18D7F85B946
S113029085B18E7F85B9089585B1806485B985B1AE
S11302A0806285B985B18F7E85B985B1877F85B92F
S11302B085B18B7F85B985B18D7F85B985B18E7FF9
S11302C085B9089585B18F7B85B985B1806285B97B
S11302D085B1806185B985B1877F85B985B18B7F0B
S11302E085B985B18D7F85B985B1816085B908955A
S11302F085B1806485B985B18F7D85B985B18F7EDF
S113030085B985B1877F85B985B18B7F85B985B17D
S1130310826085B985B18E7F85B9089585B18F7B5B
S113032085B985B1806285B985B1806185B985B1AA
S1130330877F85B985B18B7F85B985B18D7F85B977
S113034085B18E7F85B9089585B18F7B85B985B1D7
S1130350806285B985B1806185B985B1886085B9C8
S113036085B18B7F85B985B18D7F85B985B18E7F48
S113037085B908958AB18F708AB98BB1806F8BB9B2
S11303808AB18F608AB98BB18F608BB98FEF84B9D2
S113039085B908950E94BA018BB18E7F8BB98BB158
S11303A082608BB98BB184608BB98BB188608BB957
S11303B0489905C04C9903C087E00E9450004899B1
S11303C005C04D9903C088E00E945000489905C0BB
S11303D04E9903C089E00E945000489905C04F9986
S11303E003C08AE00E9450008BB181608BB98BB14D
S11303F08D7F8BB98BB184608BB98BB188608BB9DD
S1130400499905C04C9903C084E00E945000499961
S113041005C04D9903C085E00E945000499905C06C
S11304204E9903C086E00E945000499905C04F9937
S113043003C08BE00E9450008BB181608BB98BB1FB
S113044082608BB98BB18B7F8BB98BB188608BB990
S11304504A9905C04C9903C081E00E9450004A9912
S113046005C04D9903C082E00E9450004A9905C01E
S11304704E9903C083E00E9450004A9905C04F99E9
S113048003C08CE00E9450008BB181608BB98BB1AA
S113049082608BB98BB184608BB98BB1877F8BB948
S11304A04B9905C04C9903C08DE00E9450004B99B4
S11304B005C04D9903C080E00E9450004B9905C0CF
S11304C04E9903C08EE00E9450004B9965CF4F991E
S11304D063CF8FE00E9450005FCFEE0FFF1F0590A7
S10D04E0F491E02D0994F894FFCF85
S9030000FC
