S015000031335F446973706C61794C43442E73726563A3
S11300000C9434000C9451000C9451000C94510045
S11300100C9451000C9451000C9451000C94510018
S11300200C9451000C9451000C9451000C94510008
S11300300C9451000C9451000C9451000C945100F8
S11300400C9451000C9451000C9451000C945100E8
S11300500C9451000C9451000C9451000C945100D8
S11300600C9451000C94510011241FBECFEFD8E022
S1130070DEBFCDBF11E0A0E0B1E0EEEBF2E002C0E4
S113008005900D92AC31B107D9F721E0ACE1B1E0B4
S113009001C01D92A032B207E1F70E94BD000C948A
S11300A05D010C94000085B18E7F85B98FEC97E0DB
S11300B00197F1F700C0000085B1816085B908950A
S11300C0CF93C62F882321F085B1826085B903C000
S11300D085B18D7F85B989B18F709C2F907F892BD5
S11300E08BB90E94530089B190E1C99FB0011124DA
S11300F08F70682B6BB90E9453008FE99FE00197C2
S1130100F1F700C00000CF91089584B1836084B9F1
S11301108AB1806F8AB985B18E7F85B989B18F70B4
S113012080638BB90E94530089B18F7080628BB950
S11301300E9453006CE280E00E94600068E080E06E
S11301400E94600061E080E00E94600066E080E060
S11301500E9460006CE080E00E9460000895CF93EC
S1130160DF93EC0104C081E00E9460002196688165
S11301706111F9CFDF91CF9108950E9485006091BC
S11301801C0170911D0180911E0190911F010E941C
S1130190FE00C62F61E08C2F0E94600080E091E099
S11301A00E94AF002FEF83ED90E3215080409040F8
S11301B0E1F700C0000061E080E00E94600080E19F
S11301C091E00E94AF002FEF83ED90E32150804037
S11301D09040E1F700C0000060EC80E00E94600005
S11301E087E191E00E94AF002FEF83ED90E321506F
S11301F080409040E1F700C00000CCCF0E94050190
S11302006894B1110C94570108950E943C0188F040
S11302109F5798F0B92F9927B751B0F0E1F0660FC6
S1130220771F881F991F1AF0BA95C9F714C0B13007
S113023091F00E945601B1E008950C945601672F85
S1130240782F8827B85F39F0B93FCCF38695779536
S11302506795B395D9F73EF490958095709561951F
S11302607F4F8F4F9F4F089557FD9058440F551F50
S113027059F05F3F71F04795880F97FB991F61F024
S11302809F3F79F087950895121613061406551F9B
S1130290F2CF4695F1DF08C0161617061806991F07
S11302A0F1CF86957105610508940895E894BB27FC
S11102B066277727CB0197F90895F894FFCFBE
S11302BE5353535353535353535353484F4C410077
S10F02CE38342050504D004349414F008B
S9030000FC
